:020000040800F2
:1000000000180020290A00083508000839080008EF
:1000100000000000000000000000000000000000E0
:100020000000000000000000000000003D08000883
:10003000000000000000000041080008450800081A
:10004000990A000800000000990A0008990A0008AF
:10005000990A0008990A0008990A0008990A0008F4
:1000600000000000990A0008490800084D0800082F
:10007000990A0008990A0008990A0008000000007F
:10008000990A00080000000000000000990A00081A
:1000900000000000990A0008990A0008990A00085F
:1000A00000000000990A0008000000005108000844
:1000B000990A00080000000000000000990A0008EA
:1000C00010B5064C2378002B07D1054B002B02D02E
:1000D000044800E000BF0123237010BD040000208D
:1000E00000000000F80A0008084B10B5002B03D0F0
:1000F0000749084800E000BF07480368002B00D10B
:1001000010BD064B002BFBD09847F9E7000000001C
:1001100008000020F80A0008040000200000000089
:10012000002243088B4274D303098B425FD3030A36
:100130008B4244D3030B8B4228D3030C8B420DD349
:10014000FF22090212BA030C8B4202D312120902D7
:1001500065D0030B8B4219D300E0090AC30B8B4215
:1001600001D3CB03C01A5241830B8B4201D38B03C3
:10017000C01A5241430B8B4201D34B03C01A524168
:10018000030B8B4201D30B03C01A5241C30A8B42AB
:1001900001D3CB02C01A5241830A8B4201D38B0296
:1001A000C01A5241430A8B4201D34B02C01A52413A
:1001B000030A8B4201D30B02C01A5241CDD2C309AC
:1001C0008B4201D3CB01C01A524183098B4201D328
:1001D0008B01C01A524143098B4201D34B01C01A13
:1001E000524103098B4201D30B01C01A5241C3088B
:1001F0008B4201D3CB00C01A524183088B4201D3FA
:100200008B00C01A524143088B4201D34B00C01AE5
:100210005241411A00D20146524110467047FFE751
:1002200001B5002000F006F802BDC0460029F7D055
:1002300076E770477047C04610B5FA218900FFF78E
:100240006FFF0138034B586000229A6005321A6034
:1002500010BDC04610E000E0014B18607047C0467A
:1002600000000020044B5B681B090F221340034A67
:10027000D35CD8407047C046001002401C0B0008F9
:10028000044B5A68E023DB0013401B0A024AD35C8C
:10029000D8407047001002402C0B000870B5074C86
:1002A0006368E16A0F25294001310548FFF738FFEF
:1002B00063689B0C2B400233584370BD0010024012
:1002C00000127A0010B5054B5B680C221340082B16
:1002D00002D1FFF7E3FF00E0014810BD001002402B
:1002E00000127A0010B50400FFF7ECFF2060FFF762
:1002F000B9FF6060FFF7C4FFA06010BD10B5002813
:1003000022D1154B1A6B0323834013400006184378
:1003100002280CD0032804D001280ED1FFF7D2FF09
:1003200018E00D4B1B689B0710D4002012E00A4B0D
:100330001B6A9B070CD400200CE0FFF7C3FFFFF7FC
:1003400091FFFFF79DFF05E0002003E0034801E077
:100350008020000210BDC0460010024000127A004A
:1003600010B503685B0627D40468154B1C400B6866
:100370004A681343CA6813430A6913434A6913431B
:100380008A691343CA6913430A6A1A432300134351
:10039000036042680B4B1340CA8A8C6822431343A4
:1003A000436080239B010A6A9A4207D14B6A1B046F
:1003B0001B0C0361012002E0002000E0012010BDC1
:1003C0004000FFFFFBF0FFFF82B00C4A9169012063
:1003D00001439161936903400193019B084BDA69E2
:1003E0001202120ADA61196A064A0A401A621A6A85
:1003F0001202120A1A6202B07047C0460010024090
:1004000000ED00E0FFFF00FF82B00E4A51690120BD
:1004100001435161536903400193019B0A4BC2217F
:1004200089005858094A02405A508022D2001A6066
:100430005A581202120A5A50802212011A6002B04F
:100440007047C0460010024000E100E0FFFF00FFDF
:10045000F0B557464E464546E0B492B0494A9169D8
:1004600080235B0119439161926913400193019BC1
:10047000202399460293022603960327049700241B
:1004800005940694079402A99020C00500F016FA7E
:100490004023984602930396049705940694079484
:1004A00002A99020C00500F009FA80250295039664
:1004B000049705940694079402A99020C00500F0C3
:1004C000FDF9314B1968314A1140196019683048FB
:1004D00084460140196019684846814319601968CB
:1004E0004046814319601968A94329431960196876
:1004F0002848014019601F6827498A460F401F603D
:10050000264B1F683A4010273A431A601A68614622
:100510000A401A601A6849468A431A601A684146B6
:100520008A431A601A68AA4315431D601A6810406E
:1005300018601A68514611401960089482235B00C4
:100540000993E023DB000A930B9601230C9380238D
:100550009B000D9308250E950F941094FA3BFF3BDA
:1005600011930F4C08A92000FFF7FAFE6368BB4304
:1005700063606368AB43636012B01CBC90469946ED
:10058000A246F0BD001002401C000240EFBFFFFF7A
:10059000FFCFFFFFFFFCFFFFFFF3FFFF3000024034
:1005A00000300140F0B54F4680B48EB0424A9169A8
:1005B0008023DB0119439161926913400093009BF2
:1005C00080239B000193FF3BFF3B99460293032648
:1005D00003960024049405940125069501A9902012
:1005E000C00500F06BF98027FF0001974B4602938E
:1005F000039604940594069501A99020C00500F087
:100600005DF92E4B19682E4A0A401A6019682D4A66
:100610000A401A601A6820218A431A601A68203139
:100620008A431A601968802291430A431A60196844
:10063000254A0A401A601968244A0A401A60244A66
:100640001368244E33403B431360234AC62189007C
:1006500053581B021B0A535080231B05136096231B
:100660001B02079380235B01089309940A970C23CC
:100670000B930C940D94194C07A9200000F070F90D
:10068000A3681E40A660A268154B1340A360A36830
:10069000802292011343A3606268124B134063608F
:1006A000A36808229343A36023681D4325600EB00E
:1006B00004BC9146F0BDC046001002405800024004
:1006C000EFBFFFFFFFCFFFFFFFFCFFFFFFF3FFFFC9
:1006D00000000140FFFBFFFF00E100E000380140A7
:1006E000FFEFFFFFFFF7FFFFFEE7C04610B52F4902
:1006F0000B680122934313430B600B681A4203D12A
:100700003F212B48FFF7F0FF2A4A116801230B43D2
:100710001360284B1B689B07FBD5264B1A68F821F2
:100720008A4378390A431A605968234A0A40A22149
:1007300089030A435A60DA6A0F218A430E390A4351
:10074000DA621A68802149040A431A60194B1B684F
:100750009B01FBD5174B5A68F0218A435A605968B0
:10076000164A0A405A605A6803218A4301390A43EB
:100770005A60104B5B680C221340082BF9D1104CC7
:100780002000FFF759FD0F4A116804230B43136043
:100790002000FFF761FD074A136B03218B431363AE
:1007A000094A136A1B021B0A136210BD0020024093
:1007B000100B000800100240FF7FC2FFFFF8FFFF90
:1007C000006CDC0210E000E000ED00E010B5FFF787
:1007D000FBFDFFF78BFFFFF717FEFFF739FEFFF773
:1007E000E1FE00F001F8FEE770B50E4C0E4A8223E0
:1007F000DB00E25082239B00E0180C4E3200002107
:1008000000F072F900250A4BE550043BE550320038
:100810000021200000F068F981239B00E550043B93
:10082000E55070BD2000002000380140FF010000AD
:100830000C0400007047C046FEE7C0467047C04643
:100840007047C0467047C0467047C0467047C046B4
:100850007047C046134B1A6801210A431A60586852
:10086000114A02405A601868104A02401A6018681B
:100870000F4A02401A6058680E4A02405A60DA6A0B
:100880000F208243DA62186B0B4A02401A63186B1E
:10089000802202431A635A6B8A435A6300229A6089
:1008A0007047C046001002400CB8FF08FFFFF6FE7C
:1008B000FFFFFBFFFFFFC0FF6CFEFFFFF0B5002452
:1008C0003EE00123A340134039D006681D005D437C
:1008D0006A005219D24316404F686F433E43066088
:1008E0004E68013E012E05D8866816408F686F431A
:1008F0003E438660C66832400E696E433243C26032
:100900004A68022A1BD1FF2B0BD8026A5D436B4356
:100910001D01ED1AAA4315004A6953432B43036294
:100920000DE0456A1B0A1A005A435A4353431A0101
:10093000D21A95432A004D696B4313434362013435
:100940000A681300E340BCD14B68013B012B05D87A
:10095000CB684168914353430B4343600120F0BD92
:1009600030B585B004000D000368DB0749D4016889
:10097000274B19406B68EA6813432A691343AA6935
:100980001A430B00134303604268224B1340AA68CA
:10099000134343608268204B13406A6913438360AA
:1009A0001E4B984203D10020FFF7A8FC08E01C4B27
:1009B000984204D101A8FFF795FC039800E00020BD
:1009C000002820D0296800291FD0AA6980231B0293
:1009D0009A420DD140004B08C018FFF7A1FB114B04
:1009E00003404008072210401843E06001200DE05A
:1009F0004B08C018FFF794FB0004000CE0600120D6
:100A000004E0002002E0002000E0002005B030BD3E
:100A1000F369FFEFFFCFFFFFFFFCFFFF003801404E
:100A200000440040F0FF00001348854604200168A0
:100A3000090E1F22914205D1104801210160104882
:100A4000002101600F481049104A002302E0D458E9
:100A5000C4500433C4188C42F9D30D4A0D4C002302
:100A600001E013600432A242FBD3FFF7F3FE00F073
:100A700015F8FFF7ABFEFEE7001800201810024043
:100A80000000014000000020040000203C0B000892
:100A90000400002034040020FEE700000E4B70B577
:100AA00000251E000D4CE41AA410A54204D0AB0092
:100AB000F35898470135F8E700F01EF8084B002579
:100AC0001E00084CE41AA410A54204D0AB00F35851
:100AD00098470135F8E770BD340B0008340B000867
:100AE000340B0008380B000803008218934202D030
:100AF00019700133FAE77047F8B5C046F8BC08BC76
:100B00009E467047F8B5C046F8BC08BC9E46704784
:100B10005372632F6D61696E2E6300000000000048
:100B2000000000000102030406070809000000009D
:040B300001020304B7
:040B3400E9000008CC
:040B3800C1000008F0
:040B3C0000127A0029
:0400000508000A29BC
:00000001FF
