:020000040800F2
:1000000000180020D90F0008E50D0008E90D0008D0
:1000100000000000000000000000000000000000E0
:10002000000000000000000000000000ED0D0008CE
:100030000000000000000000F10D0008F50D0008B0
:10004000491000080000000049100008491000088D
:10005000491000084910000849100008491000081C
:100060000000000049100008F90D0008FD0D00080F
:10007000491000084910000849100008000000005D
:1000800049100008000000000000000049100008AE
:10009000000000004910000849100008491000083D
:1000A000000000004910000800000000010E0008D8
:1000B000491000080000000000000000491000087E
:1000C00010B5064C2378002B07D1054B002B02D02E
:1000D000044800E000BF0123237010BD040000208D
:1000E0000000000098100008084B10B5002B03D04A
:1000F0000749084800E000BF07480368002B00D10B
:1001000010BD064B002BFBD09847F9E7000000001C
:1001100008000020981000080400002000000000E3
:10012000002243088B4274D303098B425FD3030A36
:100130008B4244D3030B8B4228D3030C8B420DD349
:10014000FF22090212BA030C8B4202D312120902D7
:1001500065D0030B8B4219D300E0090AC30B8B4215
:1001600001D3CB03C01A5241830B8B4201D38B03C3
:10017000C01A5241430B8B4201D34B03C01A524168
:10018000030B8B4201D30B03C01A5241C30A8B42AB
:1001900001D3CB02C01A5241830A8B4201D38B0296
:1001A000C01A5241430A8B4201D34B02C01A52413A
:1001B000030A8B4201D30B02C01A5241CDD2C309AC
:1001C0008B4201D3CB01C01A524183098B4201D328
:1001D0008B01C01A524143098B4201D34B01C01A13
:1001E000524103098B4201D30B01C01A5241C3088B
:1001F0008B4201D3CB00C01A524183088B4201D3FA
:100200008B00C01A524143088B4201D34B00C01AE5
:100210005241411A00D20146524110467047FFE751
:1002200001B5002000F006F802BDC0460029F7D055
:1002300076E770477047C04610B5FA218900FFF78E
:100240006FFF0138034B586000229A6005321A6034
:1002500010BDC04610E000E0014B18607047C0467A
:100260000000002082B00100FA239B000193C368C4
:100270005B0621D401235B42C360C3684022134064
:100280005A1E9341DBB2012010E00D4B1B68DB03CB
:1002900002D5019B013B0193CB68402213405A1EBB
:1002A0009341DBB2019A002A00D10020019A002A72
:1002B00003D0012BE9D100E0012002B07047C04615
:1002C00010E000E070B504000D00CA234362773BE4
:1002D0004362FFF7C7FF002817D0A368402293436B
:1002E0002A681343A3602369DB0BDB03AA6813436B
:1002F00023616A682169074B0B4012041343236191
:1003000081235B42E360012000E00020FF23636261
:1003100070BDC046FFFF80FF82B00200FA239B0041
:100320000193C36880210B402239FF390B43C3601E
:10033000C368C1310B40591E8B41DBB2012010E074
:100340001C4B1B68DB0302D5019B013B0193D36867
:1003500020210B40591E8B41DBB20199002900D1AD
:1003600000200199002901D0002BE9D100281FD0DD
:10037000FA239B000193D36820210B40591E8B4127
:10038000DBB210E00B4B1B68DB0302D5019B013B8A
:100390000193D36820210B40591E8B41DBB2019998
:1003A000002900D100200199002901D0012BE9D1B9
:1003B00002B0704710E000E0F8B54F464646C0B4C2
:1003C00004000E001500002905D183685B0607D4E0
:1003D0000023136004E083685B0601D400231360EC
:1003E000CA236362773B63622000FFF73BFF00286C
:1003F00050D0002E0ED028682B796A79A9791B0479
:100400000343120213430B432168274A0A40134354
:10041000236034E02B6898462E790A213000FFF7DC
:100420007FFE07010A213000FFF700FF3943CFB2FA
:100430006E790A213000FFF773FE030199460A2105
:100440003000FFF7F3FE4B461943CEB2AD790A21D7
:100450002800FFF765FE030199460A212800FFF7EF
:10046000E5FE4B461943CBB23F04424617433602E2
:100470003E431E4327680C4B1F403E4326608122AB
:1004800052420A4BDA60A3689B0605D42000FFF7AE
:1004900043FF02E0002000E00120FF2363620CBC68
:1004A00090469946F8BDC046808080FF00280040F5
:1004B000F8B54F464646C0B404000E0015000029AA
:1004C00006D15378DA0603D5102293430A336B70B2
:1004D000CA236362773B63622000FFF7C3FE0028F4
:1004E00052D0002E0FD02B78A8786A78E9785B0379
:1004F00009040B431202134303436168274A0A406D
:100500001343636035E02B789846AE780A213000BB
:10051000FFF706FE07010A213000FFF787FE394387
:10052000CFB26E780A213000FFF7FAFD0301994639
:100530000A213000FFF77AFE4B461943CEB2ED7820
:100540000A212800FFF7ECFD030199460A21280043
:10055000FFF76CFE4B461943CAB243465B031204D5
:100560001343360233433B4367680C4A3A40134314
:100570006360812252420A4BDA60A3689B0605D46D
:100580002000FFF7C9FE02E0002000E00120FF2369
:1005900063620CBC90469946F8BDC046C00000FF9F
:1005A00000280040044B5B681B090F221340034ADC
:1005B000D35CD8407047C04600100240BC10000811
:1005C000044B5A68E023DB0013401B0A024AD35C49
:1005D000D840704700100240CC10000870B5074C9E
:1005E0006368E16A0F25294001310548FFF798FD4E
:1005F00063689B0C2B400233584370BD00100240CF
:1006000000127A0010B5054B5B680C221340082BD2
:1006100002D1FFF7E3FF00E0014810BD00100240E7
:1006200000127A0010B50400FFF7ECFF2060FFF71E
:10063000B9FF6060FFF7C4FFA06010BD10B50028CF
:1006400022D1154B1A6B0323834013400006184335
:1006500002280CD0032804D001280ED1FFF7D2FFC6
:1006600018E00D4B1B689B0710D4002012E00A4BCA
:100670001B6A9B070CD400200CE0FFF7C3FFFFF7B9
:1006800091FFFFF79DFF05E0002003E0034801E034
:100690008020000210BDC0460010024000127A0007
:1006A00010B503685B0627D40468154B1C400B6823
:1006B0004A681343CA6813430A6913434A691343D8
:1006C0008A691343CA6913430A6A1A43230013430E
:1006D000036042680B4B1340CA8A8C682243134361
:1006E000436080239B010A6A9A4207D14B6A1B042C
:1006F0001B0C0361012002E0002000E0012010BD7E
:100700004000FFFFFBF0FFFF82B00C4A916901201F
:1007100001439161936903400193019B084BDA699E
:100720001202120ADA61196A064A0A401A621A6A41
:100730001202120A1A6202B07047C046001002404C
:1007400000ED00E0FFFF00FF82B00A4A516940203F
:1007500001435161536903400193019B064B9A6821
:1007600060218A439A609A6820318A439A6002B075
:100770007047C0460010024000300240084B094A52
:100780001A60094A1A6000225A60084A1A619A607F
:10079000034BDB685B07FBD1054A014B1A607047CE
:1007A00000300040CCCC000055550000FF0F000089
:1007B000AAAA000010B582B00F4AD16980231B019C
:1007C0001943D161D26913400193019B0B4B1A6805
:1007D0007F20824340210A431A601C688022224302
:1007E0001A605C68064A22405A605A688243114384
:1007F000596002B010BDC04600100240002C0040FD
:100800007FFEFFFF82B00E4A516901200143516112
:10081000536903400193019B0A4BC2218900585838
:10082000094A02405A508022D2001A605A581202D5
:10083000120A5A50802212011A6002B07047C04654
:100840000010024000E100E0FFFF00FFF0B55F464E
:1008500056464D464446F0B48BB0454B596980220C
:10086000D2031143596159690A400392039A5969A5
:10087000802292021143596159690A400292029AF8
:1008800059698022D202114359615B691A40019271
:10089000019B9027FF050125BD62364E80231B0278
:1008A000B36280235B009846BB62B362F03B9B4619
:1008B000BB61B5610E3B9A46B36180235B019946EB
:1008C000B36104950595002406940794089404A93F
:1008D000380000F0CBFA5B46049305950694079424
:1008E000089404A9380000F0C1FA0495059506940F
:1008F0000794089404A9300000F0B8FA5346049312
:10090000059506940794089404A9300000F0AEFA07
:100910004B460493059506940795089404A9300066
:1009200000F0A4FA80231B02049305950694079413
:10093000089404A9300000F099FA43460493059501
:1009400006940794089404A9380000F08FFA4346EF
:100950000493059506940794089404A9300000F0C8
:1009600085FA0BB03CBC90469946A246AB46F0BD1A
:100970000010024000040048F0B557464E46454678
:10098000E0B492B0494A916980235B0119439161B7
:10099000926913400193019B2023994602930226FA
:1009A000039603270497002405940694079402A94C
:1009B0009020C00500F05AFA40239846029303960F
:1009C000049705940694079402A99020C00500F0AE
:1009D0004DFA802502950396049705940694079492
:1009E00002A99020C00500F041FA314B1968314A44
:1009F000114019601968304884460140196019682F
:100A00004846814319601968404681431960196856
:100A1000A9432943196019682848014019601F68D3
:100A200027498A460F401F60264B1F683A4010270F
:100A30003A431A601A6861460A401A601A684946C1
:100A40008A431A601A6841468A431A601A68AA43A0
:100A500015431D601A68104018601A68514611400D
:100A60001960089482235B000993E023DB000A935A
:100A70000B9601230C9380239B000D9308250E9564
:100A80000F941094FA3BFF3B11930F4C08A92000E0
:100A9000FFF706FE6368BB4363606368AB43636054
:100AA00012B01CBC90469946A246F0BD0010024010
:100AB0001C000240EFBFFFFFFFCFFFFFFFFCFFFF67
:100AC000FFF3FFFF3000024000300140F0B54F4619
:100AD00080B48EB0424A91698023DB011943916151
:100AE000926913400093009B80239B000193FF3B7E
:100AF000FF3B994602930326039600240494059431
:100B00000125069501A99020C00500F0AFF98027C6
:100B1000FF0001974B4602930396049405940695B3
:100B200001A99020C00500F0A1F92E4B19682E4AAA
:100B30000A401A6019682D4A0A401A601A68202172
:100B40008A431A601A6820318A431A601968802221
:100B500091430A431A601968254A0A401A601968C5
:100B6000244A0A401A60244A1368244E33403B4307
:100B70001360234AC621890053581B021B0A535095
:100B800080231B05136096231B02079380235B01C0
:100B9000089309940A970C230B930C940D94194C09
:100BA00007A9200000F0B4F9A3681E40A660A2685F
:100BB000154B1340A360A368802292011343A360E6
:100BC0006268124B13406360A36808229343A360DA
:100BD00023681D4325600EB004BC9146F0BDC0469D
:100BE0000010024058000240EFBFFFFFFFCFFFFFA1
:100BF000FFFCFFFFFFF3FFFF00000140FFFBFFFFD3
:100C000000E100E000380140FFEFFFFFFFF7FFFFCA
:100C100070B586B0174A136A802109020B4313622C
:100C2000002503957F230493FF260596124C03A904
:100C30002000FFF747FB2269104B1A40FE23DB031D
:100C40001A4322612369DB0BDB033343236101AACF
:100C500015715571957101212000FFF7ADFB01233E
:100C60006A4613705370D57001212000FFF720FCF5
:100C700006B070BD0010024000280040FFFF80FF5A
:100C8000FEE7C04610B541490B6801229343134368
:100C90000B600B681A4203D196213D48FFF7F0FF25
:100CA0003C4A116801230B4313603A4B1B689B07B6
:100CB000FBD5384B1A68F8218A4378390A431A6001
:100CC000596A01220A435A62324B5B6A9B07FBD581
:100CD000314A1368802149000B4313602D4B1A6A77
:100CE000802149020A431A62196A2C4A0A401A6290
:100CF000196A2B4A0A40802189000A431A621A6A3B
:100D0000802109020A431A625968264A0A40A22130
:100D100089030A435A60DA6A0F218A430E390A436B
:100D2000DA621A68802149040A431A60194B1B6869
:100D30009B01FBD5174B5A68F0218A435A605968CA
:100D4000194A0A405A605A6803218A4301390A4302
:100D50005A60104B5B680C221340082BF9D1134CDE
:100D60002000FFF769FA124A116804230B4313604D
:100D70002000FFF771FA074A136B03218B431363BB
:100D80000C4A136A1B021B0A136210BD00200240AA
:100D9000B01000080010024000700040FFFFFEFF8E
:100DA000FFFCFFFFFF7FC2FFFFF8FFFF006CDC02CC
:100DB00010E000E000ED00E010B5FFF7A5FCFFF744
:100DC00061FFFFF743FDFFF71DFDFFF7D5FDFFF7BF
:100DD0007DFEFFF7D3FCFFF71BFFFFF7EBFCFFF7F0
:100DE000B3FCFEE77047C046FEE7C0467047C0460A
:100DF0007047C0467047C0467047C0467047C046FF
:100E00007047C046134B1A6801210A431A6058689C
:100E1000114A02405A601868104A02401A60186865
:100E20000F4A02401A6058680E4A02405A60DA6A55
:100E30000F208243DA62186B0B4A02401A63186B68
:100E4000802202431A635A6B8A435A6300229A60D3
:100E50007047C046001002400CB8FF08FFFFF6FEC6
:100E6000FFFFFBFFFFFFC0FF6CFEFFFFF0B500249C
:100E70003EE00123A340134039D006681D005D43C6
:100E80006A005219D24316404F686F433E430660D2
:100E90004E68013E012E05D8866816408F686F4364
:100EA0003E438660C66832400E696E433243C2607C
:100EB0004A68022A1BD1FF2B0BD8026A5D436B43A1
:100EC0001D01ED1AAA4315004A6953432B430362DF
:100ED0000DE0456A1B0A1A005A435A4353431A014C
:100EE000D21A95432A004D696B4313434362013480
:100EF0000A681300E340BCD14B68013B012B05D8C5
:100F0000CB684168914353430B4343600120F0BDDC
:100F100030B585B004000D000368DB0749D40168D3
:100F2000274B19406B68EA6813432A691343AA697F
:100F30001A430B00134303604268224B1340AA6814
:100F4000134343608268204B13406A6913438360F4
:100F50001E4B984203D10020FFF770FB08E01C4BAA
:100F6000984204D101A8FFF75DFB039800E0002040
:100F7000002820D0296800291FD0AA6980231B02DD
:100F80009A420DD140004B08C018FFF7C9F8114B29
:100F900003404008072210401843E06001200DE0A4
:100FA0004B08C018FFF7BCF80004000CE0600120FB
:100FB00004E0002002E0002000E0002005B030BD89
:100FC000F369FFEFFFCFFFFFFFFCFFFF0038014099
:100FD00000440040F0FF00001348854604200168EB
:100FE000090E1F22914205D11048012101601048CD
:100FF000002101600F481049104A002302E0D45834
:10100000C4500433C4188C42F9D30D4A0D4C00234C
:1010100001E013600432A242FBD3FFF7F3FE00F0BD
:1010200015F8FFF7C9FEFEE700180020181002406F
:10103000000001400000002004000020DC10000837
:101040000400002020000020FEE700000E4B70B5D9
:1010500000251E000D4CE41AA410A54204D0AB00DC
:10106000F35898470135F8E700F016F8084B0025CB
:101070001E00084CE41AA410A54204D0AB00F3589B
:1010800098470135F8E770BDD4100008D410000867
:10109000D4100008D8100008F8B5C046F8BC08BC49
:1010A0009E467047F8B5C046F8BC08BC9E467047DF
:1010B0005372632F6D61696E2E63000000000000A3
:1010C00000000000010203040607080900000000F8
:0410D0000102030412
:0410D400E900000827
:0410D800C10000084B
:0410DC0000127A0084
:0400000508000FD907
:00000001FF
